:020000040800F2
:10000000A8590020A1040008E10400086F060008B8
:10001000E3040008EF040008FB04000800000000EF
:1000200000000000000000000000000007050008BC
:100030000905000800000000F70500086BA700088C
:10004000BB040008BB040008BB040008977A000842
:10005000BB040008BB0400080B050008BB04000833
:10006000BB040008BB040008BB040008BB04000874
:10007000BB040008BB040008BB040008BB04000864
:10008000C9BD0008BB040008BB040008BB0400088D
:10009000BB040008BB040008BB040008BB04000844
:1000A000BB0400089D6F0008BB040008BB040008E7
:1000B000BF6F0008E16F000803700008BB04000870
:1000C00093760008BB04000881770008BB04000891
:1000D000BB040008F1800008F3BD0008BB04000861
:1000E000BB040008EF7A0008BB040008BB0400084A
:1000F0008B700008BB040008BB040008BB040008A8
:10010000BB040008BB04000825700008BB040008FD
:10011000BB040008BB0400084770000869700008B1
:10012000BB040008BB040008BB040008BB040008B3
:1001300000F002F800F0B0F80AA090E8000C824449
:100140008344AAF10107DA4501D100F0A5F8AFF226
:10015000090EBAE80F0013F0010F18BFFB1A43F0A5
:100160000103184720170100401701000A444FF00F
:10017000000C10F8013B13F0070408BF10F8014B06
:100180001D1108BF10F8015B641E05D010F8016B4B
:10019000641E01F8016BF9D113F0080F1EBF10F8AF
:1001A000014BAD1C0C1B09D16D1E58BF01F801CBD2
:1001B000FAD505E014F8016B01F8016B6D1EF9D555
:1001C0009142D6D37047000000230024002500266A
:1001D000103A28BF78C1FBD8520728BF30C148BFAA
:1001E0000B6070476E290CF01E8270290CF08B8515
:1001F00066290EF0FA8765290EF0F78767290EF059
:10020000F4876129AFF3008003681B0A28BF41F01F
:10021000800169290BF06C8664290BF069867529C9
:100220000BF066866F290CF0198578290CF057853C
:10023000E9290CF0B384E4290CF0B084F5290CF022
:10024000AD84EF290CF01685F8290CF0568503686B
:10025000DB0928BF41F0800163290CF03484732945
:100260000CF03984E3290CF0D986F3290CF0DE86F2
:10027000002070471FB50CF035FE0400002000215F
:100280000DF068FF401C6060002000210DF04CFF65
:10029000E0601FBD10B510BD0DF064F91146FFF709
:1002A000E9FF0AF024FA0DF082F903B4FFF7F2FF38
:1002B00003BC0DF0C5F900000CB5002001900090C2
:1002C0006C48006840F480306A49086000BF6948A3
:1002D000006800F4003000900198401C01900098E4
:1002E00018B90198B0F5A06FF1D16248006800F428
:1002F000003010B10120009001E000200090009833
:10030000012843D15C48006840F010005A49086059
:100310000846006820F0030008600846006840F0C6
:1003200002000860534840685249486008464068E7
:1003300048600846406840F480604860084640686D
:1003400020F47C1048600846406840F488104860FB
:100350000846006840F08070086000BF45480068AB
:1003600000F000700028F9D04248406820F00300F7
:10037000404948600846406840F00200486000BFBD
:100380003C48406800F00C000828F9D10CBD10B5BD
:10039000FFF792FF10BD10B53648006840F001002D
:1003A000344908600846406834490840314948608B
:1003B00008460068324908402E490860084600682F
:1003C00020F4802008600846406820F4FE00486061
:1003D0004FF41F008860FFF7DAFF4FF000602949F3
:1003E000086010BD10B5002100200022214B5B6881
:1003F00003F00C0121B1042906D0082928D107E017
:10040000214B224C236027E0214B204C236023E02A
:10041000184B5B6803F47010164B5B6803F4803272
:10042000022303EB904022B91A4B4343174C23603D
:100430000DE0104B5B6803F4003323B1164B4343CC
:10044000124C236003E0124B4343104C236003E043
:100450000D4B0E4C236000BF00BF064B5B68C3F31F
:1004600003130E4CE15C094B1B68CB40074C236027
:1004700010BD000000100240002002400000FFF804
:10048000FFFFF6FE08ED00E000127A0000000020F9
:10049000001BB70000093D00808D5B0004000020B8
:1004A0000948804709480047FEE7FEE7FEE7FEE708
:1004B000FEE7FEE7FEE7FEE7FEE7FEE70448054944
:1004C000054A064B704700009703000831010008F9
:1004D000A8510020A8590020A8550020A8550020A8
:1004E00070470AA1184807F08DFD00BFFEE717A16D
:1004F000154807F087FD00BFFEE723A1124807F06B
:1005000081FD00BFFEE77047704770470D0A2A2A39
:100510002A2A2A2A2A2A2A2A2A2A2A2A2A2A2A2A3B
:100520002A4D656D4D616E6167655F48616E646CF3
:1005300065722A2A2A2A2A2A2A2A2A2A2A2A2A2A98
:100540002A2A2A2A2A0D0A00003801400D0A2A2ADE
:100550002A2A2A2A2A2A2A2A2A2A2A2A2A2A2A2AFB
:100560002A4275734661756C745F48616E646C6590
:10057000722A2A2A2A2A2A2A2A2A2A2A2A2A2A2A93
:100580002A2A2A2A0D0A00000D0A2A2A2A2A2A2A99
:100590002A2A2A2A2A2A2A2A2A2A2A2A2A55736110
:1005A00067654661756C745F48616E646C65722A3C
:1005B0002A2A2A2A2A2A2A2A2A2A2A2A2A2A2A2A9B
:1005C0002A2A0D0A00000000EFF3108072B670476F
:1005D00080F310887047324A1368012B04D04FF023
:1005E000010313602F4A10602F4A11602F484FF00B
:1005F000805101607047EFF3108272B6284801689D
:1006000091B14FF0000101602648016829B1EFF374
:10061000098121E9F00F0068016023490968096830
:10062000B1E8F00F81F3098882F310884EF0040ED0
:1006300070471D4908601B494FF0000008601849C9
:100640004FF0010008601A484FF47F01D0F80020F5
:1006500041EA0201016015484FF0805101601548E0
:100660000068006880F3088861B662B670471EF0C3
:10067000040F14BFEFF30880EFF3098020E9F00FB7
:1006800040F804ED14BF80F3088880F3098800B5B2
:1006900000F038F85DF804EB4EF0040E70470000EF
:1006A0001C000020140000201800002004ED00E0D1
:1006B00020ED00E008ED00E0F0B504460D461646DA
:1006C000301D20F0070040380146002203E0424F71
:1006D00041F82270521C102AF9D30D624FF0000C21
:1006E000C1F824C0C1F828C0C1F82CC0C1F830C07E
:1006F0004B638C634FF0807CC1F83CC0F0BD374940
:100700000860704770B505462C1D3448006838B144
:100710002846324909688847064606B970BD00BFB9
:100720002FA0E16B01F0C2FA31A0216A01F0BEFAFC
:1007300033A0616A01F0BAFA35A0A16A01F0B6FAF5
:1007400037A0E16A01F0B2FA39A0216801F0AEFAEF
:100750003BA0616801F0AAFA3DA0A16801F0A6FAE9
:100760003FA0E16801F0A2FA41A0216901F09EFAE0
:1007700043A0616901F09AFA45A0A16901F096FAD7
:1007800047A0E16901F092FA49A0216B01F08EFACD
:100790004BA0616B01F08AFA4DA0A16B01F086FAC3
:1007A000287800F0040038B102F059FB06463146C3
:1007B0004BA001F07BFA02E051A001F077FA00BFF4
:1007C000FEE710B555A001F071FA4FF4B072574929
:1007D00057A001F06EFB10BDEFBEADDE2000002083
:1007E0007073723A203078253038780A00000000A3
:1007F0007230303A203078253038780A0000000016
:100800007230313A203078253038780A0000000004
:100810007230323A203078253038780A00000000F3
:100820007230333A203078253038780A00000000E2
:100830007230343A203078253038780A00000000D1
:100840007230353A203078253038780A00000000C0
:100850007230363A203078253038780A00000000AF
:100860007230373A203078253038780A000000009E
:100870007230383A203078253038780A000000008D
:100880007230393A203078253038780A000000007C
:100890007231303A203078253038780A0000000074
:1008A0007231313A203078253038780A0000000063
:1008B0007231323A203078253038780A0000000052
:1008C000206C723A203078253038780A0000000019
:1008D0002070633A203078253038780A0000000014
:1008E00068617264206661756C74206F6E20746834
:1008F000726561643A2025730D0A0D0A000000003C
:1009000068617264206661756C74206F6E20686126
:100910006E646C65720D0A0D0A00000073687574D0
:10092000646F776E2E2E2E0A00000000DEF20008A3
:1009300030000000704719480068704770B50446E1
:10094000FFF742FE0546154804602846FFF740FEC3
:1009500070BD10B511480068401C1049086002F0D5
:100960007EFA0446206C401E2064206C18B9E06BAF
:10097000206402F043FB02F02BFE10BD014600296B
:1009800002DA4FF0FF3007E0C8224A4302F2E732B2
:100990004FF47A7392FBF3F07047000024000020BC
:1009A0002DE9F041064602F05AFA08B102F01AF9B0
:1009B000A74D6C6810E0A4F10C07082231463846B8
:1009C00000F0C6FE38B902F04AFA08B102F018F990
:1009D0003846BDE8F0812468281D8442EBD102F03E
:1009E0003EFA08B102F00CF90020F2E770B50446B7
:1009F0000D46164614B94FF0FF3070BD2846FFF77C
:100A0000CFFF10B14FF0FF30F7E72A460321204611
:100A100001F0DAFEE6820020A076208300BFECE73A
:100A200010B5044624B94D228A498BA001F041FA41
:100A3000204601F0E6FE002010BD0020704770B592
:100A40000446002524B99A22874983A001F031FA8F
:100A5000606A90B1A07D00F0100070B92046616A14
:100A6000884705462DB12A46214680A001F01EF98F
:100A700003E0E08A40F01000E082284670BD70B5C7
:100A800004460E46002524B9BD22864972A001F015
:100A900010FAA07D00F0100088B9606A58B12046B5
:100AA000616A8847054635B12A4621466FA001F0A4
:100AB000FDF8284670BDE08A40F01000E082A07D7D
:100AC00000F0080030B1207E00F0080010B16FF097
:100AD0000600EFE7A06A28B131462046A26A904797
:100AE000054603E040F60F70304020830DB1A81D8D
:100AF00068B9208B40F008002083A07E401CA076BF
:100B0000A07E20B9EB22674967A001F0D2F9284600
:100B1000D0E770B50446002524B9FD2267494EA0F0
:100B200001F0C7F9A07E10B94FF0FF3070BDA07E74
:100B3000401EA076A07E08B10020F7E7E06A18B159
:100B40002046E16A884705460DB1A81D08B9002076
:100B500020832846EAE72DE9F04104460D46164673
:100B60001F462CB94FF4937255493BA001F0A1F9EF
:100B7000A07E30B94FF0FF3000F016FD0020BDE838
:100B8000F081206B38B13B46324629462046D4F8E6
:100B900030C0E047F3E76FF0050000F005FD0020EE
:100BA000EDE72DE9F04104460D4616461F462CB9E7
:100BB0004FF4A672434928A001F07BF9A07E30B91A
:100BC0004FF0FF3000F0F0FC0020BDE8F081606BDA
:100BD00038B13B46324629462046D4F834C0E04777
:100BE000F3E76FF0050000F0DFFC0020EDE770B5E3
:100BF00004460D4616462CB94FF4B672324916A07B
:100C000001F057F9A06B28B1324629462046A36B64
:100C1000984770BD6FF00500FBE770B504460D46C0
:100C20002CB940F2851229490BA001F042F9E56187
:100C3000002070BD70B504460D462CB94FF4CD723E
:100C4000234905A001F035F92562002070BD0000A0
:100C500080000020F1F2000864657620213D2052DA
:100C6000545F4E554C4C000006F30008546F206949
:100C70006E697469616C697A65206465766963651B
:100C80003A2573206661696C65642E20546865207E
:100C90006572726F7220636F6465206973202564CA
:100CA0000A00000015F300086465762D3E72656643
:100CB0005F636F756E7420213D20300024F30008BF
:100CC00034F3000843F3000853F3000865F3000809
:100CD0007FF3000870B544E000BFFFF775FC0646DF
:100CE00000F04CFC40B1324932A000F0DFFF652239
:100CF0002F4939A001F0DDF83046FFF769FC00BF4D
:100D0000FFF762FC054600F04BF8E0B1334800689D
:100D1000A0F1140404F11400D0E900215160D0E9DD
:100D2000001211604060006000BF206F10B12046CB
:100D3000216F8847204601F0D1FD012807D12846C0
:100D4000FFF746FC70BD2846FFF742FCFAE728464D
:100D5000FFF73EFCA06A01F0E4FA204601F09DFD99
:100D600000BF00F01DF80028B6D100BFEAE701E09F
:100D7000FFF7B0FFFCE71FB520201F21C200184B72
:100D8000CDE90032CDE902100023164A16A1184819
:100D900002F040F8164802F08EF81FBD1448704764
:100DA0000E490868884201D0012070470020FCE706
:100DB00099F3000846756E6374696F6E5B25735D09
:100DC000207368616C6C206E6F742075736564208D
:100DD000696E204953520A0030000000B000002024
:100DE000E40700206F0D00087469646C6500000062
:100DF0006C0700204268116042684A6041600860E8
:100E000070472DE9F04105460C469046204602F019
:100E100023F9B8F1000F03D0B8F1010F23D105E099
:100E200004F114012846FFF7E5FF1CE02E680FE0EF
:100E3000A6F1140794F8350097F83510884206DAC1
:100E400004F1140107F11400FFF7D4FF02E0366843
:100E5000AE42EDD100BFAE4204D104F114012846E8
:100E6000FFF7C8FF00BF00BF0020BDE8F08170B5EC
:100E700005460EE0FFF7A8FB06462868A0F114041B
:100E80004FF0FF302063204601F0ECFF3046FFF7C3
:100E90009FFB284600F035FB0028EBD0002070BDFA
:100EA0002DE9F04104460D4616461F4624B9D822C6
:100EB000FC49FDA000F0FDFF2A460121204601F07B
:100EC00083FC204600F025FBA68367720020BDE866
:100ED000F08110B5044624B9F522F749F2A000F0DC
:100EE000E8FF04F11400FFF7C2FF204601F089FC7F
:100EF000002010BD2DE9F04105460E46174600BF03
:100F0000FFF762FB804600F039FB48B1EB49ECA0EB
:100F100000F0CCFE40F21112E849F2A000F0C9FF47
:100F20004046FFF755FB00BF2946012001F07CFC3D
:100F3000044614B92046BDE8F081204600F0E9FAE5
:100F4000A68367722046F6E770B5044600BFFFF738
:100F50003BFB054600F012FB48B1E349D8A000F086
:100F6000A5FE4FF49872E049DEA000F0A2FF2846EB
:100F7000FFF72EFB00BF2CB94FF49972DA49CAA0D3
:100F800000F097FF04F11400FFF771FF204601F015
:100F900084FC002070BD2DE9F34105462DB940F2D7
:100FA0004D12D249C0A000F084FFFFF70DFB0646AA
:100FB00000BF00BFA88B002806DDA88B401EA883B9
:100FC0003046FFF705FB57E0019830B93046FFF790
:100FD000FFFA6FF00100BDE8FC8100BFFFF7F4FAF3
:100FE000074601F03CFF48B9C049C1A000F05EFED1
:100FF00040F26D12BD49BBA000F05BFF00BFFFF7E0
:10100000E3FA804600F0BAFA48B1B849ACA000F063
:101010004DFE40F26D12B549B2A000F04AFF4046C5
:10102000FFF7D6FA00BF3846FFF7D2FA00BF01F04B
:1010300016FF04460020206300BF00BF6A7A2146E5
:1010400005F11400FFF7DDFE019800280BDD00BF5D
:1010500000BF01AA002104F1440002F093FA04F158
:10106000440002F0E7F93046FFF7B2FA01F01FFD45
:10107000206B08B1206BAEE70020ACE710B504464A
:1010800000212046FFF787FF10BD70B504460026FB
:10109000FFF79AFA054600BF00BF04F1140000F004
:1010A00030FA28B904F1140000F03BFA012602E0FE
:1010B000A08B401CA0832846FFF78AFA012E01D19D
:1010C00001F0F5FC002070BD2DE9F04104460E460C
:1010D00015462CB94FF4F272934973A000F0E9FE63
:1010E000012E10D12F46FFF76FFA804604F114004D
:1010F000FFF7BDFEA7834046FFF76AFA01F0D7FC71
:101100000020BDE8F0814FF0FF30FAE770B50446EB
:101110000D4616462CB940F20F22844984A000F0F7
:10112000C8FE2A460221204601F04EFB204600F070
:10113000F0F90120A08300202062FF20A07700208A
:10114000E077667270BD10B504462CB940F22E22CD
:101150007C4977A000F0ADFE04F11400FFF787FE94
:10116000204601F04EFB002010BD2DE9F041054660
:101170000E4600BFFFF728FA074600F0FFF948B116
:1011800071494FA000F092FD40F249226E4955A0EE
:1011900000F08FFE3846FFF71BFA00BF29460220F9
:1011A00001F042FB044614B92046BDE8F081204618
:1011B00000F0AFF90120A08300202062FF20A0777B
:1011C0000020E07766722046EFE770B5044600BF66
:1011D000FFF7FAF9054600F0D1F948B15B4938A0AC
:1011E00000F064FD40F26A2258493EA000F061FE22
:1011F0002846FFF7EDF900BF2CB94FF41B72534995
:101200004BA000F056FE04F11400FFF730FE20461C
:1012100001F043FB002070BD2DE9F341044600BFFF
:10122000FFF7D2F9074601F01AFE48B9484930A045
:1012300000F03CFD4FF4227245492AA000F039FE2F
:1012400000BFFFF7C1F9804600F098F948B1404966
:101250001BA000F02BFD4FF422723D4921A000F0AD
:1012600028FE4046FFF7B4F900BF3846FFF7B0F953
:1012700000BF2CB940F28A2235492DA000F019FE9A
:1012800001F0EDFD0546FFF79FF9064600BF00BFE0
:1012900000202863206AA8425CD1E07F401CE077F0
:1012A000A7E00000AFF3000873656D20213D2052D8
:1012B000545F4E554C4C0000BBF30008C9F30008C6
:1012C00046756E6374696F6E5B25735D207368612C
:1012D0006C6C206E6F74207573656420696E204994
:1012E00053520A0030000000D7F30008E5F300086D
:1012F00046756E6374696F6E5B25735D20736861FC
:101300006C6C206E6F74206265207573656420625A
:1013100065666F7265207363686564756C657220BD
:1013200073746172740A0000F1F3000800F400089D
:101330006D7574657820213D2052545F4E554C4C9C
:10134000000000000EF400081EF400082EF400084F
:101350003EF4000800BFA08B00280ADDA08B401ED1
:10136000A083256295F83500A077E07F401CE077E8
:101370003FE0019848B96FF0010028633046FFF75D
:1013800027F96FF00100BDE8FC8100BF00BF95F8B0
:101390003500216A91F83510884205DA05F13502E9
:1013A0000221206A01F027FF627A294604F1140025
:1013B000FFF727FD019800280BDD00BF00BF01AA41
:1013C000002105F1440002F0DDF805F1440002F0CF
:1013D00031F83046FFF7FCF801F069FB286B28B1C3
:1013E000286B093000B9B6E7286BCCE7FFF7ECF8BB
:1013F00006463046FFF7ECF80020C4E72DE9F04739
:101400000446002600BFFFF7DFF8804601F027FD05
:1014100058B94A49AFF2281000F048FC40F21132A6
:101420004649AFF2401000F044FD00BFFFF7CCF892
:10143000814600F0A3F858B14049AFF27C1000F0AB
:1014400035FC40F211323D49AFF2681000F031FD39
:101450004846FFF7BDF800BF4046FFF7B9F800BFA8
:1014600001F0FDFC0546FFF7AFF8074600BF00BFDF
:10147000206AA84209D04FF0FF3028633846FFF7B2
:10148000A7F84FF0FF30BDE8F087E07F401EE0771F
:10149000E07F08BBA07F216A91F83510884205D013
:1014A00004F11E020221206A01F0A5FE04F11400DD
:1014B00000F027F888B96069A0F1140500BF00BFEB
:1014C000256295F83500A077E07F401CE07704F1B5
:1014D000140000F026F8012606E0A08B401CA08333
:1014E00000202062FF20A0773846FFF771F8012E18
:1014F00001D101F0DCFA0020C5E703464FF0FF30D0
:10150000704701460868884201D1012070470020D9
:10151000FCE7014601F114004060006000BF0020BC
:10152000704770B504462068A0F1140500BF00BFE5
:10153000284601F097FC002070BD00004CF4000824
:1015400010B500BF00BFFFF73FF804460D48007814
:10155000401C0C4908702046FFF73AF810BD10B542
:1015600000BF00BFFFF730F8044606480078401E71
:10157000044908702046FFF72BF810BD0148007899
:10158000704700002800002010B5FFF7F7FF10B1EA
:10159000FB48006810BD01F062FC044614B9F8482D
:1015A0000068F7E7206BF5E770B50446FFF7E6FF44
:1015B00010B1F348046070BD01F051FC054615B947
:1015C000EF480460F7E72C6300BFF4E710B5FFF7BE
:1015D000D5FF08B1EA4810BD01F041FC044614B142
:1015E00004F13000F7E7E648F5E730B5034601E0DF
:1015F00003F8011B141EA2F10102F9D130BDF0B5B0
:101600000D46144601462A46914202D916198E42C9
:1016100009D203E012F8016B01F8016B261EA4F158
:101620000104F7D107E0234603E05E1E975D8F5566
:101630005B1E002BF9D1F0BD70B50C460146234668
:101640008B4210D29D188D420DD91144134405E0F0
:101650005D1E2B462E784D1E29462E70151EA2F1BA
:101660000102F5D108E003E013F8015B01F8015B2A
:10167000151EA2F10102F7D170BDF0B5034600209E
:101680001C460D4608E026782F78F61B301E00D049
:1016900004E0641C6D1C521E002AF4D800BFF0BD8B
:1016A00001460A4600E0521C10780028FBD1501A6F
:1016B0007047F0B506460F463846FFF7F1FF05467E
:1016C0000DB93046F0BD3046FFF7EAFF044609E0A9
:1016D000641E2A4639463046FFF7CFFF08B9304628
:1016E000F0E7761CAC42F3DA0020EBE730B50346B6
:1016F0000C4600BF13F8011B14F8012B412902DB33
:101700005A2900DC2031412A02DB5A2A00DC20322F
:10171000914201D10029EDD1881A30BD70B5034640
:10172000A2B118460C4600BF14F8016B00F8016B1B
:101730003EB902E0002500F8015B551E2A1EF9D1D2
:1017400002E0551E2A1EEFD100BF00BF184670BD33
:1017500030B5034600200BE011F8015B1C78641BD8
:1017600064B2201E02D113F8015B05B902E0521EDB
:10177000002AF1D100BF30BD024601E0521C491CD5
:10178000107818B110780B789842F7D010780B7851
:10179000C01A704702460B46114600E0491C087803
:1017A00010B1881A9842F9D3881A704770B5044668
:1017B0002046FFF775FF451C284600F0B9FC064699
:1017C0000EB9002070BD2A4621463046FFF717FFAC
:1017D0003046F7E770472DE9F04F85B00D469C463F
:1017E000DDE90F740E9B04F04008B8F1000F02D041
:1017F000DFF8908101E0DFF89081CDF8008004F0FF
:101800001008B8F1000F01D024F0010404F0010821
:10181000B8F1000F02D04FF0300801E04FF020087F
:10182000C246002604F00208B8F1000F11D0002AC9
:1018300002DA2D2652420CE004F00408B8F1000F41
:1018400001D02B2605E004F00808B8F1000F00D005
:101850002026002142B94FF0300B8846491C0DF17B
:10186000040909F808B01DE01AE0E146B9F10A0FD1
:1018700008D14FF00A0BB2FBFBFE0BFB1E28B2FB9C
:10188000FBF202E002F00F08120900BFDDF8009041
:1018900019F808B08846491C0DF1040909F808B088
:1018A000002AE2D1B94200DD0F46DB1B04F011082B
:1018B000B8F1000F10D116B1002B00DD5B1E06E061
:1018C000A84203D84FF0200880F80080401CB3F1F4
:1018D0000008A3F10103F3DC26B1A84201D8067089
:1018E0005B1E401C04F01008B8F1000F0AD104E0A0
:1018F000A84201D880F800A0401CB3F10008A3F171
:101900000103F5DC06E0A84203D84FF0300880F868
:101910000080401CB8467F1E8845F4DC08E0A842E1
:1019200005D80DF1040818F8018080F80080401CEB
:10193000B1F10008A1F10101F1DC06E0A84203D8F1
:101940004FF0200880F80080401CB3F10008A3F19C
:101950000103F3DC05B0BDE8F08F0146002009E08B
:101960000B685A1C0A601A7800EB800302EB4302F2
:10197000A2F130000A681278303A0A2AF0D3704790
:101980002C0000206EF500085DF500082DE9FF4FE2
:1019900089B0804644460A984044461E464504D2D3
:1019A0004FF0FF36A6EB08000A906FE10B98007825
:1019B000252806D0B44202D80B9800782070641C09
:1019C00061E1002526E00B98401C0B900B980078F5
:1019D0002D2802D145F010051CE00B9800782B282B
:1019E00002D145F0040515E00B980078202802D1BB
:1019F00045F008050EE00B980078232802D145F049
:101A0000200507E00B980078302802D145F0010549
:101A100000E000E0D7E700BF4FF0FF370B980078F9
:101A200030380A2804D20BA8FFF797FF07460EE0CC
:101A30000B9800782A280AD10B98401C0B900C9820
:101A400080C80C90002F02DA7F4245F010054FF05D
:101A5000FF390B9800782E281CD10B98401C0B9056
:101A60000B98007830380A2804D20BA8FFF775FFCE
:101A700081460AE00B9800782A2806D10B98401C72
:101A80000B900C9850F8049B0C90B9F1000F01DA00
:101A90004FF00009002004900B980078682803D0CC
:101AA0000B9800786C2805D10B98007804900B985F
:101AB000401C0B900A2005900B9800786F2875D079
:101AC0000CDC632813D004DC252870D058286FD193
:101AD0008DE064286DD06928F9D18FE070286AD034
:101AE000732825D0752878D07828F0D182E005F0C9
:101AF000100040B904E0B44201D820202070641CDA
:101B0000781E071EF7DC0C9810F8041B0C90C8B266
:101B10000790B44201D807982070641C04E0B442D6
:101B200001D820202070641C781E071EF7DCAAE074
:101B30000C98006806900C98001D0C90069808B947
:101B4000EAA006900698FFF7ABFD8346B9F1000FB7
:101B500002DDCB4500DDCB4605F0100048B904E0BE
:101B6000B44201D820202070641C38467F1E58459E
:101B7000F6DC002008900BE0B44202D8069800780A
:101B80002070641C0698401C06900898401C089021
:101B900008985845F0DB04E0B44201D820202070BA
:101BA000641C38467F1E5845F6DC6CE01CE015E0EE
:101BB00028E022E0FFE7781C10B9082745F001056E
:101BC000CDE9007902950C9804C8102331460C9099
:101BD0002046FFF700FE044655E012E0B44201D86B
:101BE00025202070641C4EE0082005901DE045F083
:101BF000400500BF1020059017E000BF45F002052A
:101C000000BF12E0B44201D825202070641C0B985C
:101C1000007830B1B44202D80B9800782070641C70
:101C200002E00B98401E0B902DE000BF04986C283A
:101C300007D10C9850F804AB0C9005F00200B8B135
:101C400016E0049868280BD10C9830F8041B1FFA92
:101C500081FA0C9005F0020050B10FFA8AFA07E001
:101C60000C9850F804AB0C9005F0020000B100BFD6
:101C7000CDE900790295524631462046059BFFF793
:101C8000AAFD044600BF0B98401C0B900B980078EF
:101C900000287FF48BAEB44201D8207001E0002010
:101CA0003070A4EB08000DB0BDE8F08F0FB438B56C
:101CB00005A800907F218F48009B049AFFF766FEDD
:101CC00004467F2C00D97F248B48006818B98948C6
:101CD000FFF780FD15E088480068058B864800689E
:101CE000008B40F040008449096808832346814AFC
:101CF000002181480068FEF754FF7F480068058393
:101D000000BF0020009038BC5DF814FB08B57BA034
:101D1000FFF7CCFF7CA0FFF7C9FF84A001230022BE
:101D20000321009084A0FFF7C1FF8BA0FFF7BEFF47
:101D300008BD0FB4F8B504460D4609A80090294621
:101D40002046009B089AFFF721FE064600200090DF
:101D50003046F8BC5DF814FB37B505460C46224604
:101D60004FF0FF312846029BFFF710FE3EBD0FB437
:101D700038B5044606A800902046009A0599FFF75A
:101D8000EBFF054600200090284638BC5DF814FBA8
:101D900059480068704770B5054657480668284698
:101DA000FEF7FEFD044664B15348006818B152487E
:101DB0000068FEF7AEFE43212046FEF760FE4E4867
:101DC0000460304670BD70B5044604B970BD4A4821
:101DD000006818B92046FFF7FDFC19E04648006886
:101DE000058B45480068008B40F040004249096877
:101DF00008832046FFF754FC06463346224600215E
:101E00003D480068FEF7CDFE3B480068058300BFF3
:101E100000BFDBE72DE9F04107460C46E01C20F04F
:101E20000304F81C20F0030000EB0408404600F017
:101E30007FF9054665B1601E284008B92E1904E0F7
:101E4000601E2844611E20EA010646F8045C3546FF
:101E50002846BDE8F08170B5044654F8045C284675
:101E600000F05FFA70BD014609B900207047C8B2A2
:101E700020B1C8B2434A105C401CF7E701F47F4030
:101E800028B14048C1F30722805C0930EEE701F435
:101E90007F0028B13B48C1F30742805C1130E5E781
:101EA000384800EB116000781930DFE736490860E8
:101EB0007047F8B504460D4616460020009032489B
:101EC000006858B933462A46214630A0FFF7EEFE97
:101ED00000BF9DF800000028FBD005E032462946EF
:101EE0002046294B1B689847F8BD0000284E554CEA
:101EF0004C290000E4080020300000200A205C206B
:101F00007C202F0A000000002D205254202D20207C
:101F1000202020546872656164204F70657261747E
:101F2000696E672053797374656D0A004F6374207E
:101F30003130203230323000202F207C205C2020B5
:101F400020202025642E25642E2564206275696C6E
:101F5000642025730A0000002032303036202D2006
:101F60003230313720436F7079726967687420624C
:101F7000792072742D746872656164207465616D76
:101F80000A0000005DF400083400002028257329B1
:101F900020617373657274696F6E206661696C6528
:101FA000642061742066756E6374696F6E3A257380
:101FB0002C206C696E65206E756D6265723A2564C1
:101FC000200A000070B50446F3480068844204D239
:101FD0008E22F249F2A0FFF76CFFF94800688442B4
:101FE00004D38F22ED49F7A0FFF763FF608820B18B
:101FF0009022EA49FEA0FFF75CFFE74960680968A4
:102000004518AC4215D0688898B9ED4800688542FB
:102010000FD0FB480068A84201D1F9480460686805
:102020006060DD480068201ADB4A69681268114464
:102030008860D949A06809684618A64211D07088FE
:1020400078B9EF480068A04201D1ED4806606068A9
:102050007060D1480068301ACF4A61681268114434
:10206000886070BD2DE9F04705460E46E81C20F05B
:10207000030726F0030800BFFEF7A6FA8146FFF724
:102080007DFA40B1DF49E0A0FFF710FEBF22DD4935
:10209000E6A0FFF70EFF4846FEF79AFA00BFB8F138
:1020A000180F09D9A8F11800B84205D3A8EB07000A
:1020B0001838DF49086006E032462946DDA0FFF700
:1020C000F5FDBDE8F087B448076000BF00BF0468B5
:1020D0004FF4F5502080D64800680C306060002036
:1020E000A0606080AC49606809680844B449086031
:1020F0004FF4F550096808800120B149096848800B
:10210000CB4800680C30AE4909684860C848006890
:102110000C30AB490968886000230122D4A1D6485D
:10212000FEF7BEFE9C480068B549086000BFC8E7DE
:102130002DE9F047054600BFFEF746FA8146FFF756
:102140001DFA40B1CD49B0A0FFF7B0FDFC22CB494C
:10215000B6A0FFF7AEFE4846FEF73AFA00BF15B943
:102160000020BDE8F087E81C20F00300A84201D061
:1021700000BF01E000BF00BFE81C20F00305AC4831
:102180000068854203D900BF00BF0020E9E70C2D9D
:1021900000D20C254FF0FF31B748FEF7FCFE9848FF
:1021A00000687D490968461AB0E07B4800688419D8
:1021B000608800287BD106F10C006168081AA842EB
:1021C00075D306F10C006168091A05F11800814207
:1021D00030D306F10C0000EB05086F48006800EBF7
:1021E00008074FF4F55038800020788060687860E8
:1021F000BE60C4F80480012060808D487968006862
:102200000C30814205D06449786809680844C0F8F8
:1022100008809B48016805F10C0008449849086053
:10222000984800680968884219D29548006895491D
:10223000086014E001206080574960680968611AED
:10224000401A8F49096808448D4908608D48006824
:102250000968884203D28A4800688A4908604FF4B6
:10226000F550208066480068844224D107E0644825
:102270000068406848490968084461490860604846
:102280000068408828B15E4800684D490968884266
:10229000EDD15B4800684A49096888420BD058482C
:1022A0000068408838B14FF4B072744900E029E00A
:1022B00075A0FFF7FEFD7048FEF7E7FE04F10C0085
:1022C00028443F490968884205D94FF4B2726B49E6
:1022D0007748FFF7EEFD04F0030028B140F26512E5
:1022E00066497448FFF7E5FD04F0030028B14FF498
:1022F000B372624970A0FFF7DCFD00BF00BF04F1BC
:102300000C002EE7244800683044466848480068BE
:10231000401BB0423FF649AF5748FEF7B6FE0020DB
:102320001FE770B5054600BFFEF74EF90646FFF7FA
:1023300025F948B16C4934A0FFF7B8FC40F20322FC
:1023400069493AA0FFF7B5FD3046FEF741F900BFF5
:1023500005B970BD05F0030028B140F207226249BB
:1023600062A0FFF7A6FD0C480068854203D314481D
:102370000068854205D34FF402725B496848FFF755
:1023800098FD05480068854203D30D4800688542E2
:1023900000D3C7E0C9E00000380000207FF5000846
:1023A0002872745F75696E74385F74202A296D65B0
:1023B0006D203E3D20686561705F707472000000A2
:1023C0003C0000202872745F75696E74385F742059
:1023D0002A296D656D203C202872745F75696E74C2
:1023E000385F74202A29686561705F656E6400003B
:1023F0006D656D2D3E75736564203D3D2030000098
:10240000400000208AF5000846756E6374696F6E9F
:102410005B25735D207368616C6C206E6F74207532
:1024200073656420696E204953520A003000000031
:10243000440000206D656D20696E69742C20657202
:10244000726F7220626567696E2061646472657381
:102450007320307825782C20616E6420656E6420AE
:102460006164647265737320307825780A00000017
:102470006865617000000000640900209EF5000896
:10248000480000204C00002028286C6672656520FA
:102490003D3D20686561705F656E6429207C7C200D
:1024A00028216C667265652D3E7573656429290067
:1024B000A0170108F816010828282872745F7569AA
:1024C0006E7433325F74296D656D29202620285281
:1024D000545F414C49474E5F53495A45202D2031A6
:1024E0002929203D3D203000BDF50008282828720C
:1024F000745F75696E7433325F7429726D656D290E
:102500002026202852545F414C49474E5F53495A78
:1025100045202D20312929203D3D2030000000009C
:102520004417010800BF00BF13E7A5F10C0400BF6A
:1025300000BF4FF0FF318548FEF72DFD608828B9B8
:1025400040F22222824983A0FFF7B3FC2088B0F535
:10255000F55F05D040F223227D4981A0FFF7A9FC59
:10256000002060804FF4F550208084480068844249
:1025700001D282480460824960680968611A401A81
:1025800080490968081A7F4908602046FFF71AFD4C
:102590006E48FEF77AFD00BFDBE62DE9F84F0646F0
:1025A0000C4600BFFEF710F80090FEF7E7FF58B1A9
:1025B0007549AFF2AC10FFF779FB4FF4C572724961
:1025C000AFF29810FFF775FC0098FEF701F800BF16
:1025D000E01C20F003046D480068844204D900BF69
:1025E00000BF0020BDE8F88F24B93046FFF799FE00
:1025F0000020F7E71EB92046FFF79AFDF2E74FF0FB
:10260000FF315248FEF7C7FC5D480068864203D39D
:102610005F480068864204D34C48FEF736FD3046DA
:10262000E0E7A6F10C0856480068A8EB0009D8F8C6
:102630000400A0EB0900A0F10C07A74204D1434815
:10264000FEF723FD3046CDE704F11800B8422DD245
:10265000381B4C490968081A4A49086009F10C00FE
:1026600000EB040A4648006800EB0A054FF4F550F9
:10267000288000206880D8F804006860C5F80890B9
:10268000C8F804A04148696800680C30814205D050
:102690003B49686809680844C0F808A02846FFF765
:1026A00091FC2A48FEF7F1FC30469BE72748FEF7ED
:1026B000ECFC2046FFF73CFD8346BBF1000F0CD03D
:1026C000A74201D2384600E020460246314658462D
:1026D000FEF795FF3046FFF724FE584682E72DE9C6
:1026E000F04104460D4600BFFDF76EFF0746FEF7BA
:1026F00045FF58B12749AFF2F020FFF7D7FA4FF462
:10270000F6722449AFF2DC20FFF7D3FB3846FDF721
:102710005FFF00BF04FB05F0FFF70AFD06462EB180
:1027200004FB05F200213046FEF75FFF3046BDE8AE
:10273000F08110B1154B1B68036011B1114B1B6880
:102740000B6012B1144B1B681360704764090020C2
:10275000BDF500086D656D2D3E7573656400000064
:102760006D656D2D3E6D61676963203D3D20484577
:1027700041505F4D414749430000000040000020A8
:102780003800002048000020A8F500084400002080
:102790003C000020B3F500084C00002002685160A6
:1027A00002680A60016048607047D0E9002151600A
:1027B000D0E9001211604060006070477047014628
:1027C0006E4800EB011070472DE9F04104460D46BC
:1027D00016466A4800EB051745F080002072082273
:1027E00031462046FEF79AFFFDF7EEFE804604F1E3
:1027F0000C01381DFFF7D2FF4046FDF7E9FEBDE8AA
:10280000F08170B5044624B9FB225D495DA0FFF755
:1028100050FBFDF7D9FE054604F10C00FFF7C5FF9C
:102820002846FDF7D5FE70BD2DE9F04705460F4659
:1028300000BFFDF7C9FE8146FEF7A0FE48B156492C
:1028400056A0FFF733FA4FF48C7253495CA0FFF7A0
:1028500030FB4846FDF7BCFE00BF484800EB0516BC
:10286000F068FFF765FC044614B90020BDE8F08766
:10287000257200206072082239462046FEF74EFF7E
:10288000FDF7A2FE804604F10C01301DFFF786FF24
:102890004046FDF79DFE2046E8E770B504462CB99A
:1028A00040F25912474937A0FFF703FB207A00F0A6
:1028B000800028B14FF4AD72424943A0FFF7F9FA06
:1028C000FDF782FE054604F10C00FFF76EFF284677
:1028D000FDF77EFE2046FFF724FD70BD10B50446CF
:1028E0002CB94FF4BF72434926A0FFF7E2FA207AD1
:1028F00000F0800008B1012010BD0020FCE72DE9A8
:10290000F04704460D464FF00008002600270CB1A2
:10291000052D02DD0020BDE8F08700BFFDF754FE65
:102920008146FEF72BFE48B133491CA0FFF7BEF9E4
:1029300040F29D12304922A0FFF7BBFA4846FDF74E
:1029400047FE00BF00F04EF917B90C4800EB051721
:102950007E680CE0A6F10C08082221464046FEF7EE
:10296000F7FE18B900F04CF94046D4E73668381D38
:102970008642EFD100F044F90020CCE7500000205F
:10298000C5F500086F626A65637420213D205254CA
:102990005F4E554C4C000000D6F5000846756E633E
:1029A00074696F6E5B25735D207368616C6C206E5B
:1029B0006F74207573656420696E204953520A0054
:1029C00030000000E9F5000821286F626A65637431
:1029D0002D3E7479706520262052545F4F626A65DF
:1029E00063745F436C6173735F53746174696329CB
:1029F00000000000FAF5000814F6000870B504465F
:102A000024B959228F4990A0FFF753FAA06A0078A1
:102A1000232809D1A16AE069884205D9D4E90A01CD
:102A20000844E16988420AD221468CA0FFF73EF9AA
:102A3000FDF7CAFD054600BF002DFDD108E0A06AE4
:102A40002030E169814203D821468BA0FFF72EF99F
:102A500070BD10B500209649088000BF00BF00245B
:102A600005E0944901EBC40000F0E9F8641C202C57
:102A7000F7DB1F20904908700020904908609049BA
:102A80000860904800F0DBF810BD70B58C48006815
:102A9000FFF7E9F9451E874850F83500A0F1140406
:102AA0008648046004F11C00FDF7C3FD70BD2DE9EC
:102AB000F041FDF789FD07467D480088002834D1A4
:102AC0007F480068FFF7CFF9461E7A4850F8360075
:102AD000A0F1140479480068844222D076490E702F
:102AE00076480568046000BF00BF2046FFF786FFF8
:102AF0007548007848B904F11C0105F11C00FDF788
:102B00006AFD3846FDF764FD0EE000BF00BF04F12A
:102B10001C0105F11C00FDF75EFD3846FDF758FD70
:102B200002E03846FDF754FD02E03846FDF750FD5F
:102B3000BDE8F08170B504462CB94FF49172634939
:102B400041A0FFF7B6F9FDF73FFD0546012084F8E7
:102B5000340094F83520574B03EBC20004F1140104
:102B60004268116042684A604160086000BF00BF6F
:102B700000BF5349A06B09680843514908602846C3
:102B8000FDF726FD70BD70B504462CB94FF4A87250
:102B90004F492DA0FFF78DF9FDF716FD054600BF43
:102BA00000BF04F11400D0E900215160D0E9001207
:102BB00011604060006000BF94F835103D4A02EBA0
:102BC000C1000168814201D1012100E0002129B149
:102BD0003B48A16B00688843394908602846FDF7E7
:102BE000F7FC70BD10B5FDF7EFFC044630480088D7
:102BF000401C00B22E4908802046FDF7E9FC10BDBC
:102C000010B5FDF7E1FC044629480088401E00B2DB
:102C1000274908800846B0F90000002807DC00209A
:102C200008802046FDF7D4FCFFF741FF02E0204674
:102C3000FDF7CEFC10BD1E48008880B27047406092
:102C40000060704723F60008746872656164202193
:102C50003D2052545F4E554C4C0000007468726524
:102C600061643A257320737461636B206F766572BB
:102C7000666C6F770A0000007761726E696E673A62
:102C800020257320737461636B20697320636C6FFC
:102C9000736520746F20656E64206F6620737461A5
:102CA000636B20616464726573732E0A0000000018
:102CB000A000002084090020A8000020A40000201B
:102CC000AC000020B0000020280000203DF60008E5
:102CD00057F600080268516002680A6001604860A7
:102CE0007047D0E900215160D0E9001211604060C6
:102CF0000060704770B5FD480468FDF765FC054647
:102D00002046FFF740FF042084F8340004F144001B
:102D100000F048FB2046FFF7E1FD012805D1206FB8
:102D200018B92046FFF76DFD04E004F11401F048E6
:102D3000FFF7D0FF2846FDF74BFCFFF7B8FE70BD4C
:102D400070B505462C462CB940F2D122E949EAA0DB
:102D5000FFF7AFF894F8340000F00F00022805D018
:102D600040F2D222E349E9A0FFF7A3F86FF0010097
:102D7000206304F11400FFF7B4FF2046FFF7DAFEEA
:102D8000FFF795FE70BD2DE9FC5F04468B461646A5
:102D90001F46DDE90C9ADDE90E5804F1140040608D
:102DA000006000BF26626762C4F82890C4F82CA0B7
:102DB0002321D4E90A02FEF718FCD4E90A3C634453
:102DC0001A1FAFF2CF03D4E90801FDF775FCE061EB
:102DD000202D04DB9E22DC49DCA0FFF76AF83034AA
:102DE000A57165710020A060C4F80C80C4F8108043
:102DF0002060207120646064303C00902346AFF274
:102E0000BF022146019004F1440000F0AEFA002018
:102E1000BDE8FC9F2DE9FF5F04460D461746984626
:102E20000EAE96E8400E24B9EE22D149B2A0FFF7CB
:102E300040F826B9EF22CE49CEA0FFF73AF82A464D
:102E400000212046FFF7C0FC43463A46294620466B
:102E50008DE8400EFFF797FF04B0BDE8F09FA34850
:102E60000068704770B504462CB940F2A522C749E6
:102E7000A1A0FFF71EF800BF00BF94F8340000F0D7
:102E80000F00022804D000BF00BF4FF0FF3070BD1C
:102E9000FDF79AFB054604F11400FFF722FF04F149
:102EA000440000F050FB2846FDF792FB2046FFF758
:102EB00041FE0020EBE710B504462CB94FF48A72AE
:102EC000B3498DA0FEF7F5FF94F8340000F00F0031
:102ED00028B140F21512AE49AEA0FEF7EAFF94F811
:102EE000360084F8350094F8351001208840A0633E
:102EF00000BF00BF022084F834002046FFF7B2FF75
:102F0000FFF7ADFF08B1FFF7D2FD002010BD70B58F
:102F100004462CB94FF4A072AC4977A0FEF7C9FF64
:102F200094F8340000F00F0010B12046FFF72BFE9C
:102F300004F1440000F036FA042084F834002046FE
:102F4000FFF75FFC206F50B1FDF73EFB054604F133
:102F500014016748FFF7BEFE2846FDF739FB002045
:102F600070BD2DE9FF5F06460F4690461D46DDE920
:102F70000EAB31460020FFF757FC8146B9F1000F38
:102F800003D1002004B0BDE8F09F2846FFF7D0F839
:102F9000044624B94846FFF780FC0020F2E7434688
:102FA0003A46314648468DE8300CFFF7ECFE48467D
:102FB000E8E770B504462CB94FF4D17284494EA0AD
:102FC000FEF777FF94F8340000F00F0010B12046B0
:102FD000FFF7D9FD04F1440000F0E4F9042084F87F
:102FE0003400FDF7F1FA054604F114014048FFF7FB
:102FF00071FE2846FDF7ECFA002070BD70B5FDF7B4
:10300000E3FA05463948046894F8340000F00F00EC
:1030100001281CD1D4E90510814218D004F1140014
:10302000FFF75FFE94F835206A4B03EBC20004F112
:1030300014014268116042684A604160086000BF44
:103040002846FDF7C5FAFFF732FD002070BD28467F
:10305000FDF7BEFA0020F9E770B504462CB940F23E
:103060007B225D4924A0FEF724FF00BF00BF94F837
:10307000340000F00F00012804D000BF00BF4FF063
:10308000FF3070BDFDF7A0FA0546022084F8340039
:103090002046FFF778FD04F1440000F054FA28467A
:1030A000FDF796FA0020ECE731B5FDF78DFA0546FD
:1030B0000E4804682CB94FF4FD7248490EA0FEF783
:1030C000F8FE2046FFF7C8FF6A46002104F14400DD
:1030D00000F058FA04F1440000F0ACF92846FDF77E
:1030E00077FAFFF7E4FC206B801C79E0A400002055
:1030F000B000002009F7000874687265616420213F
:103100003D2052545F4E554C4C00000028746872AC
:103110006561642D3E7374617420262052545F549F
:1031200048524541445F535441545F4D41534B29EC
:10313000203D3D2052545F5448524541445F535511
:103140005350454E4400000071F600087072696FDC
:1031500072697479203C2052545F5448524541446E
:103160005F5052494F524954595F4D415800000039
:1031700081F60008737461636B5F7374617274200D
:10318000213D2052545F4E554C4C0000F8F600088B
:1031900090F60008287468726561642D3E7374614E
:1031A0007420262052545F5448524541445F535482
:1031B00041545F4D41534B29203D3D2052545F54B3
:1031C00048524541445F494E49540000A2F6000868
:1031D000B3F6000884090020E6F60008C4F60008EB
:1031E00008B900202063002038BD10B504462046F1
:1031F000FFF75AFF10BD2DE9F04104460E46154673
:1032000034B940F22D223049AFF21410FEF751FECE
:103210003EB3012E2AD0022E2CD1FDF7D5F9074658
:1032200094F8340000F00F0001280ED12046FFF77B
:10323000AAFC287884F8350094F8351001208840DD
:10324000A0632046FFF776FC07E0287884F8350075
:1032500094F8351001208840A0633846FDF7B8F98E
:1032600009E02046FFF727FEBDE8F0812046FFF782
:10327000A0FEF9E700BF00BF0020F5E72DE9F0410F
:103280000646FFF7ECFD08B1FFF7ACFC0F4D6C688C
:1032900010E0A4F10C07082231463846FEF758FA30
:1032A00038B9FFF7DCFD08B1FFF7AAFC3846BDE8E6
:1032B000F0812468281D8442EBD1FFF7D0FD08B1CE
:1032C000FFF79EFC0020F2E7D4F600085000002033
:1032D0000268516002680A600160486070472DE929
:1032E000F04704460E4617469846DDF8209084F8CD
:1032F0000990607A20F001006072E6612762002088
:10330000A062C4F82480002506E004F1140101EB5A
:10331000C50000F0B0F96D1C012DF6DBBDE8F087AB
:1033200070B50446204600F0A9F910B14FF0FF3007
:1033300070BD2068A0F11405A86AF9E710B502462F
:10334000002001460EE002F1140303EBC100D0E9B6
:1033500000436360D0E9003423604060006000BF38
:10336000481C01460129EEDB10BD2DE9F843044657
:103370000D4616461F46DDE9088924B9BC22C3491B
:10338000C3A0FEF796FD2A4604212046FFF71CFA4B
:1033900043463A4631462046CDF80090FFF79FFF5E
:1033A000BDE8F88370B5044624B9D122BD49B8A060
:1033B000FEF77FFDFDF708F905462046FFF7BEFF43
:1033C0002846FDF705F92046FFF71BFA002070BDDF
:1033D0002DE9F84304460E4617469846DDF820903E
:1033E00021460420FFF720FA054615B90020BDE864
:1033F000F88343463A4631462846CDF80090FFF719
:103400006EFF2846F3E770B504462CB94FF4877277
:10341000A5499FA0FEF74DFDFDF7D6F805462046CD
:10342000FFF78CFF2846FDF7D3F82046FFF735FA63
:10343000002070BD2DE9F84305462DB94FF4987270
:103440009A4993A0FEF735FDFDF7BEF88046284661
:10345000FFF774FF687A20F0010068724046FDF7BC
:10346000B7F86FF00041686A884205D34FF4A07244
:103470008E498FA0FEF71DFDFDF75DFA696A0844CD
:10348000A862FDF7A1F88046924E009600242AE03B
:1034900019E05DF824201168142202EBC402881A96
:1034A000826AAB6AD21A00D108E0826AAB6AD21A89
:1034B0006FF000439A4200D20CE000BF5DF8240098
:1034C00000684DF824005DF8240006EBC40149684B
:1034D0008842DED100BF2CB15DF824000830611CA9
:1034E0004DF82100641C002CD2D07B480068401CA1
:1034F000794908600846076805F114010098FFF74C
:10350000E7FE022412E007F0030060B9C4F10103F2
:1035100005F1140202EBC301C4F101025DF82200BF
:10352000FFF7D6FE00E003E0BF08641C012CEAD9D7
:1035300000BF687A40F0010068724046FDF748F825
:103540000020BDE8F88370B504462CB94FF4D4725E
:1035500062494FA0FEF7ADFC607A00F0010010B99F
:103560004FF0FF3070BDFDF72FF805462046FFF7FE
:10357000E5FE2846FDF72CF8607A20F00100607225
:103580000020EFE770B504460E4615462CB940F210
:10359000C91253493EA0FEF78CFC4EB1012E04D057
:1035A000022E08D0032E10D10AE0606A28600CE0D9
:1035B0002868606209E0607A20F00200607204E02E
:1035C000607A40F00200607200BF00BF002070BD52
:1035D00070B500BF00BFFDF7AEF90546FCF7F4FF7C
:1035E00006462AE03B480068A0F11404A06A281AA5
:1035F0006FF0004188421FD22046FFF79FFED4E9BA
:1036000007108847FDF797F9054600BF00BF607AAD
:1036100000F0020058B1607A00F0010038B1607A21
:1036200020F0010060722046FFF704FF05E0607A99
:1036300020F00100607200E004E0264800F01EF86F
:103640000028CFD000BF3046FCF7C2FF00BF00BF4C
:1036500070BD10B51F48FFF763FE10BD10B5002404
:1036600005E01C4901EBC40000F005F8641C002CC7
:10367000F7D010BD70474060006070470146086891
:10368000884201D1012070470020FCE71BF70008A9
:1036900074696D657220213D2052545F4E554C4C2B
:1036A0000000000029F7000839F7000849F7000872
:1036B00074696D65722D3E696E69745F7469636BC0
:1036C000203C2052545F5449434B5F4D4158202FBA
:1036D00020320000B8000020C000002058F7000889
:1036E00066F7000831490143314A1160704770B5EF
:1036F000002100230F22C47804B32D4C246804F465
:10370000E064C4F5E064210AC1F10403CA404478CE
:1037100004FA03F18478144021430901254C06780A
:10372000A155047804F01F050124AC4005786D1103
:10373000AD0005F1E025C5F8004109E0047804F08A
:103740001F050124AC401C4D0678761145F8264033
:1037500070BD1A4A0A400243154B1B1F1A6070477E
:1037600039B1134A121D12680243114B1B1D1A6016
:1037700006E00F4A121D126882430D4B1B1D1A6092
:103780007047042808D14FF0E021096941F0040195
:103790004FF0E022116107E04FF0E021096921F0CC
:1037A00004014FF0E0221161704700000000FA05AB
:1037B0000CED00E000E400E080E100E080FFFF1F8E
:1037C00010B50446CC48844208D10121042000F001
:1037D0002DFB0021042000F029FB46E0C74884426D
:1037E00008D10121082000F021FB0021082000F071
:1037F0001DFB3AE0C248844208D10121102000F0AC
:1038000015FB0021102000F011FB2EE0BD48844282
:1038100008D10121202000F009FB0021202000F028
:1038200005FB22E0B848844208D10121402000F085
:10383000FDFA0021402000F0F9FA16E0B348844276
:1038400008D10121802000F0F1FA0021802000F051
:10385000EDFA0AE0AE48844207D10121801500F05C
:10386000E5FA0021A01500F0E1FA10BD10B5012124
:10387000084600F0DBFA0021012000F0D7FA10BD65
:103880002DE9F041024600250026002000230024F7
:10389000002791F803C00CF00F0591F803C00CF05D
:1038A000100CBCF1000F03D091F802C04CEA0505E2
:1038B00091F800C0BCF1000F31D0146800202BE05B
:1038C0004FF0010C0CFA00F3B1F800C00CEA03064B
:1038D0009E4220D183004FF00F0C0CFA03F7BC433B
:1038E00005FA03FC4CEA040491F803C0BCF1280F6C
:1038F00006D14FF0010C0CFA00FCC2F814C00AE02B
:1039000091F803C0BCF1480F05D14FF0010C0CFA3F
:1039100000FCC2F810C0401C0828D1D31460B1F8D4
:1039200000C0BCF1FF0F34DD546800202EE000F130
:10393000080C4FF0010808FA0CF3B1F800C00CEACB
:1039400003069E4221D183004FF00F0C0CFA03F7BF
:10395000BC4305FA03FC4CEA040491F803C0BCF133
:10396000280F05D100F1080C08FA0CF8C2F81480F1
:1039700091F803C0BCF1480F07D100F1080C4FF0DB
:10398000010808FA0CF8C2F81080401C0828CED3B1
:103990005460BDE8F0814FF6FF7101800221817013
:1039A0000421C17070470246002093680B400BB1A0
:1039B000012000E0002070470146886880B270470F
:1039C00002460020D3680B400BB1012000E000202C
:1039D00070470146C86880B2704701617047416115
:1039E00070470AB1016100E041617047C1607047F2
:1039F0004FF480320A438261816182618269826907
:103A0000704702460020434B18684FF680731840F9
:103A100040EA021008433F4B186070473E49C861B6
:103A20007047F0B50A46002300240021002500F06D
:103A30000046B6F1004F02D1364EF16901E0354E35
:103A40007168C0F3034583B200F44016B6F5401F19
:103A500008D121F070612F4E766826F070662D4FE8
:103A60007E6012E000F48016B6F5801F06D10326B2
:103A700006FA05F4A14341F0706106E0460D3601F7
:103A800003FA06F6B14341F0706122B1460D3601EA
:103A900003FA06F6314300F00046B6F1004F02D1BA
:103AA0001C4EF16101E01B4E7160F0BD30B500228B
:103AB0008B071C0F0F2303FA04F2164B08338C10EC
:103AC00053F824309343134C08348D1044F82530B8
:103AD00023468C1053F824308C07240F00FA04F48A
:103AE00023430C4C08348D1044F8253030BD0A496E
:103AF000DC3108607047000000080140000C014004
:103B0000001001400014014000180140001C014059
:103B1000002001400000014000002042DF48006812
:103B200040F00100DD49086008464068DC49084073
:103B3000DA49486008460068DA490840D749086011
:103B40000846006820F4802008600846406820F499
:103B5000FE0048604FF41F0088607047CF49096835
:103B600021F48031CD4A11601146096821F4802189
:103B70001160B0F5803F03D0B0F5802F0ED106E084
:103B8000C649096841F48031C44A116007E0C3495D
:103B9000096841F4A021C14A116000E000BF00BFE4
:103BA000704710B501460022002300204A11012A67
:103BB00002D1BA4C236806E0022A02D1B74C236A2C
:103BC00001E0B64C636A01F01F02012494401C40DE
:103BD0000CB1012000E0002010BD38B5002000909D
:103BE0000024002500BF3120FFF7DBFF05460098C9
:103BF000401C00900098B0F5A06F01D0002DF2D0CD
:103C00003120FFF7CEFF08B1012400E00024204658
:103C100038BD01460020A14A106820F0F80040EAB3
:103C2000C10010607047A04908607047024600203C
:103C30009A4B586820F47C1042EA01031843974BD2
:103C40005860704798490866704701460020934ABB
:103C5000506820F003000843506070478F48406868
:103C600000F00C007047014600208C4A506820F09C
:103C7000F00008435060704701460020874A5068B2
:103C800020F4E06008435060704701460020834AFA
:103C9000506820F4605040EAC1005060704729B17C
:103CA0007E4A527A02437D4B5A7204E07B4A527A32
:103CB00082437A4B5A7270477B49D831086070470B
:103CC00001460020754A506820F440400843506087
:103CD00070470021714A20321170704A82F820101A
:103CE000012802D004280AD104E001216B4A2032C5
:103CF000117005E00521694A2032117000E000BF13
:103D000000BF70476949086070476449096A014308
:103D1000624A11627047654944390860704730B59E
:103D200000210022002400235C4D6D6805F00C0189
:103D300021B1042905D0082923D105E05C4D056097
:103D400022E05C4D05601FE0544D6D6805F4701273
:103D5000524D6D6805F48034022505EB92421CB982
:103D6000554D554305600BE04C4D6D6805F400352D
:103D70001DB1524D5543056002E04E4D554305605F
:103D800002E04B4D056000BF00BF444D6D6805F07B
:103D9000F00109094A4D6B5C0568DD4045603F4D07
:103DA0006D6805F4E061090A454D6B5C4568DD40CE
:103DB00085603A4D6D6805F46051C90A404D6B5CF1
:103DC0004568DD40C560354D6D6805F44041890B9F
:103DD0003C4D6B5CC568B5FBF3F5056130BD29B1A1
:103DE0002E4A526902432D4B5A6104E02B4A526914
:103DF00082432A4B5A61704729B1284A926902438B
:103E0000264B9A6104E0254A92698243234B9A61CA
:103E1000704729B1214AD2690243204BDA6104E09C
:103E20001E4AD26982431D4BDA61704729B11B4A91
:103E3000D2680243194BDA6004E0184AD268824320
:103E4000164BDA60704729B1144A12690243134BCA
:103E50001A6104E0114A12698243104B1A617047DB
:103E600012494039086070470F49C86470470B49D0
:103E7000C87170470948406A40F08070074948623D
:103E8000704701460020054A92680A400AB10120A5
:103E900000E000207047014988727047001002401E
:103EA0000000FFF8FFFFF6FE00004242800442429D
:103EB00000127A00001BB70000093D00808D5B00F6
:103EC000C4000020D400002010B50446FB48844202
:103ED00009D101218803FFF7A9FF00214FF4804099
:103EE000FFF7A4FF32E0F648844209D101214804DB
:103EF000FFF7A9FF00214FF40030FFF7A4FF25E0F2
:103F0000F048844209D101218804FFF79CFF002179
:103F10004FF48020FFF797FF18E0EB48844209D167
:103F20000121C804FFF78FFF00214FF40020FFF7A5
:103F30008AFF0BE0E548844208D101210805FFF71C
:103F400082FF00214FF48010FFF77DFF10BD2DE9A7
:103F5000F04786B005460E460024A24600BFA146A3
:103F60000027B08900B100BF2F462C8A4CF6FF70A5
:103F70000440F08804432C82AC894EF6F3100440D0
:103F8000B08831890843718908430443AC81AC8A05
:103F90004FF6FF400440B0890443AC8201A8FFF70C
:103FA000BEFEC648874202D1DDF810A001E0DDF870
:103FB0000CA0A88900F4004040B10AEBCA0000EB55
:103FC0000A1031684900B0FBF1F807E00AEBCA00BB
:103FD00000EB0A1031688900B0FBF1F86420B8FBEF
:103FE000F0F004012009642101FB1089A88900F484
:103FF000004040B1322000EBC900B0FBF1F000F00E
:104000000700044308E0322000EB09106421B0FBF4
:10401000F1F000F00F0004432C8106B0BDE8F087FA
:104020004FF41651016000218180C18001810C2173
:10403000418100218181704710B502460020108A1D
:104040004FF2FF0318400B884C8823438C8823438E
:10405000CC8823431843108210BD00210180418089
:104060008180C180704721B1828942F400528281EF
:1040700004E082894DF6FF731A4082817047F0B5E3
:104080000346002400260025002040F66A17B942A6
:1040900000D100BF1846C1F3421401F01F060127EA
:1040A00007FA06F5012C01D10C3004E0022C01D1F5
:1040B000103000E014301AB107682F43076002E0A7
:1040C0000768AF430760F0BD1AB1838A0B43838250
:1040D00002E0838A8B4383827047028A4FF6F07333
:1040E0001A400282028A0A430282704782894FF292
:1040F000FF731A40828182890A438281704721B10D
:10410000828942F00202828104E082894FF6FD73C7
:104110001A4082817047028A4FF6DF731A4002828A
:10412000028A0A430282704721B1028A42F4804225
:10413000028204E0028A4BF6FF731A400282704743
:10414000C1F308028280704701468888C0F30800E6
:104150007047818941F0010181817047028BD2B2A1
:104160000283028B42EA012202837047028B02F42F
:104170007F420283028B0A430283704721B1828A05
:1041800042F02002828204E0828A4FF6DF731A40F6
:104190008282704721B1828A42F01002828204E05A
:1041A000828A4FF6EF731A408282704721B1828A69
:1041B00042F00802828204E0828A4FF6F7731A40C6
:1041C0008282704721B1828942F40042828103E0F9
:1041D0008289C2F30E028281704721B1828A42F441
:1041E0000062828204E0828A4FF2FF731A40828268
:1041F0007047828A4FF6FB731A408282828A0A4392
:104200008282704721B1828A42F00202828204E0F7
:10421000828A4FF6FD731A40828270470246002060
:10422000B1F5007F00D100BF13880B400BB1012016
:1042300000E00020704701F40072B2F5007F00D169
:1042400000BFCA430280704770B5024600240023B5
:104250000025002040F66A16B14200D100BFC1F32C
:10426000421501F01F03012606FA03F3012D02D1C6
:104270009689334006E0022D02D1168A334001E0D0
:10428000968A33400C12012606FA04F4168834404C
:1042900013B10CB1012000E0002070BD10B5002268
:1042A000002340F66A14A14200D100BF0A12012483
:1042B0009440A3B2DC43048010BD000000380140EC
:1042C0000044004000480040004C004000500040C6
:1042D00010B50446FE48844208D10121C014FFF7FE
:1042E000A5FD0021E014FFF7A1FDC4E0B4F1804F6B
:1042F00008D101210846FFF7A6FD00210120FFF7A4
:10430000A2FDB8E0F348844208D101210220FFF762
:104310009AFD00210220FFF796FDACE0EE488442B2
:1043200008D101210420FFF78EFD00210420FFF7B2
:104330008AFDA0E0E948844208D101210820FFF766
:1043400082FD00210820FFF77EFD94E0E4488442CE
:1043500008D101211020FFF776FD00211020FFF782
:1043600072FD88E0DF48844208D101212020FFF758
:104370006AFD00212020FFF766FD7CE0DA488442D8
:1043800008D101214014FFF751FD00216014FFF70F
:104390004DFD70E0D548844209D10121C804FFF7E2
:1043A00045FD00214FF40020FFF740FD63E0D048B9
:1043B000844209D101210805FFF738FD00214FF49F
:1043C0008010FFF733FD56E0CA48844209D101212D
:1043D0004805FFF72BFD00214FF40010FFF726FDE5
:1043E00049E0C548844208D101214020FFF72BFD58
:1043F00000214020FFF727FD3DE0C048844208D15E
:1044000001218020FFF71FFD00218020FFF71BFD09
:1044100031E0BB48844208D101218015FFF713FD2C
:104420000021A015FFF70FFD25E0B648844209D111
:1044300001210804FFF7FAFC00214FF48030FFF758
:10444000F5FC18E0B048844209D101214804FFF787
:10445000EDFC00214FF40030FFF7E8FC0BE0AB4827
:10446000844208D101218804FFF7E0FC00214FF4C9
:104470008020FFF7DBFC10BD00220288944B98429D
:104480000ED0994B98420BD0B0F1804F08D0914B91
:10449000984205D0904B984202D0904B984204D15C
:1044A0004FF68F731A404B881A438D4B984207D0B2
:1044B0008C4B984204D04FF6FF431A40CB881A43E6
:1044C00002808B8883850B880385814B98420BD0B3
:1044D000854B984208D08B4B984205D08A4B984226
:1044E00002D08A4B984201D10B7A03860123838242
:1044F000704770B5002400220023058C4FF6FE762D
:1045000035400584028C8388048B4FF68F752C40D0
:10451000B51E2C400D882C43751E2A400D892A4358
:104520004D882A436A4DA8420BD06F4DA84208D04F
:10453000744DA84205D0744DA84202D0734DA842D4
:1045400013D14FF6F7752A404D892A434FF6FB7574
:104550002A408D882A434FF6FF652B404FF6FF55C2
:104560002B408D892B43CD892B4383800483CD88B9
:104570008586028470BD70B5002400220023058C5E
:104580004FF6EF7635400584028C8388048B48F61D
:10459000FF752C404FF6FF452C400D884FF6FF76F7
:1045A00006EA05252C434FF6DF752A400D8906EAF9
:1045B00005152A434D8806EA05152A43444DA842AD
:1045C00002D0494DA8421DD14FF67F752A404D8932
:1045D0004FF6FF7606EA05152A434FF6BF752A40C7
:1045E0008D8806EA05152A434FF6FF352B404FF21A
:1045F000FF752B408D8906EA85052B43CD8906EA98
:1046000085052B4383800483CD880587028470BD94
:1046100070B5002400220023058C4FF6FF6635405C
:104620000584028C8388848B4FF68F752C404FF65F
:10463000FC752C400D882C434FF6FF552A400D8900
:104640004FF6FF7606EA05252A434D8806EA05253A
:104650002A431F4DA84202D0234DA8421DD14FF23C
:10466000FF752A404D894FF6FF7606EA05252A4355
:104670004FF6FF352A408D8806EA05252A434EF677
:10468000FF752B404DF6FF752B408D8906EA051509
:104690002B43CD8906EA05152B4383808483CD887F
:1046A0008587028470BD70B5002200230024058C2C
:1046B0004EF6FF7635400584038C8488828B48F65D
:1046C000FF752A404FF6FF452A400D8820E0000084
:1046D000002C01400004004000080040000C004095
:1046E000001000400014004000340140004C014024
:1046F000005001400054014000180040001C0040E0
:1047000000200040004001400044014000480140BA
:104710004FF6FF7606EA05252A434DF6FF752B4036
:104720000D8906EA05352B434D8806EA05352B43EE
:10473000FA4DA84202D0FA4DA84208D14BF6FF75B7
:104740002C408D894FF6FF7606EA85152C43848030
:104750008283CD88A0F84050038470BD828B4FF2D5
:10476000FF331A408283828B4FF6FF7303EA0123E3
:104770001A4382837047F0B50C461546002200218B
:104780000026078C4EF6FF7C07EA0C070784828B15
:10479000018C4FF6FF7707EA043640F6FF473A40B0
:1047A0004FF6FF7707EA05273A434FF6FF7707EA08
:1047B00003373A43D94FB8420ED0D94FB8420BD045
:1047C000B0F1804F08D0D74FB84205D0D64FB8428D
:1047D00002D0D64FB84206D14DF6FF77394046F4A5
:1047E0008057394305E047F6FF57394044F4805776
:1047F000394382830184F0BD828B4FF6F3731A40F4
:104800008283828B0A4382837047F0B50C4615463B
:10481000002200210026078C4FF6FF6C07EA0C07E8
:104820000784828B018C4FF6FF7707EA04264FF648
:104830000C773A404FF6FF7707EA03172F433A43C6
:10484000B64FB8420ED0B64FB8420BD0B0F1804F41
:1048500008D0B44FB84205D0B34FB84202D0B34FDE
:10486000B84206D14FF6FF57394046F480773943B6
:1048700005E04FF2FF57394044F480773943828393
:104880000184F0BD028B4FF2FF331A400283028B8A
:104890004FF6FF7303EA01231A4302837047F0B512
:1048A0000C461546002200210026078C4FF6EF7CAF
:1048B00007EA0C070784028B018C4FF6FF7707EAA3
:1048C000041640F6FF473A404FF6FF7707EA0337F2
:1048D0003A434FF6FF7707EA05273A438F4FB8422E
:1048E0000ED08F4FB8420BD0B0F1804F08D08D4F13
:1048F000B84205D08C4FB84202D08C4FB84206D196
:104900004FF6DF77394046F01007394305E04FF6A0
:104910005F77394044F01007394302830184F0BDCA
:10492000028B4FF6F3731A400283028B0A43028311
:104930007047F0B50C46154600220021068C4FF654
:10494000FE773E400684028B018C4FF60C76324097
:104950007E1C06EA03162E433243704EB0420ED040
:104960006F4EB0420BD0B0F1804F08D06D4EB042C8
:1049700005D06D4EB04202D06C4EB04206D14FF61B
:10498000FD76314044F00106314305E04FF6F576FF
:10499000314044F00106314302830184F0BD70B51B
:1049A00005460C465D4885420ED05D4885420BD0D9
:1049B000B5F1804F08D05B48854205D05A48854202
:1049C00002D05A48854200D100E000BF208850B98B
:1049D0002389A28861882846FFF7ABFFE188284633
:1049E000FFF79EFF25E0208804280AD12389A288AA
:1049F00061882846FFF753FFE1882846FFF742FF0A
:104A000017E0208808280AD12389A28861882846CF
:104A1000FFF7FBFEE1882846FFF7EEFE09E0238959
:104A2000A28861882846FFF7A6FEE1882846FFF79E
:104A300095FE70BD2DE9F04105460C460026012784
:104A4000608808B9022600E00026A088012801D16C
:104A5000022700E001272088A0B92389A288618865
:104A60002846FFF766FFE1882846FFF759FF2389AC
:104A70003A4631462846FFF712FFE1882846FFF7FD
:104A800001FF13E02389A28861882846FFF707FF0A
:104A9000E1882846FFF7F6FE23893A463146284644
:104AA000FFF747FFE1882846FFF73AFFBDE8F081AE
:104AB0000A884B881A438B881A43CB881A430B8980
:104AC0001A434B891A438B891A43A0F84420704734
:104AD0004FF6FF71818000210180C1804180017209
:104AE00070470021018041808180C1800181418126
:104AF0008181C18170470021018041800121818035
:104B00000021C180018170470021018041808180A6
:104B1000C18001814181818170470000002C0140EA
:104B2000003401400004004000080040000C004038
:104B300021B1028842F00102028004E002884FF6AF
:104B4000FE731A400280704731B1B0F8442042F43D
:104B50000042A0F8442005E0B0F84420C2F30E0261
:104B6000A0F8442070471AB183890B43838102E087
:104B700083898B43838170478182704741EA0203B6
:104B8000A0F8483070471AB183890B43838102E053
:104B900083898B438381704701894FF6F8721140F6
:104BA000018170470A46002101894FF68F73194031
:104BB00011430181704730B504460D462946204611
:104BC000FFF7F0FF208940F00700208130BD2DE97C
:104BD000F04104460D4616461F46602D06D13B4661
:104BE000012231462046FFF75AFE05E03B460122EE
:104BF00031462046FFF79DFE29462046FFF7D2FFAB
:104C0000208940F007002081BDE8F08130B50C46D6
:104C100000210189C9B24FF6FF7505EA0325154346
:104C200025432943018130BD2DE9F04105460E465B
:104C300017469846002443463A4631462846FFF731
:104C4000E5FF2C894FF6F870044044F007044FF656
:104C50008F70044044F070042C81BDE8F081F0B501
:104C600004460D4616461F463B4632462946204618
:104C7000FFF7CCFF208940F480402081F0BD018502
:104C8000828270470A46002101884FF68F731940CF
:104C9000114301807047F0B50C4615461E460021B1
:104CA000002200230189028B038C4FF6F8773940EC
:104CB00021434FF6FC473A4040F201173A434FF682
:104CC000DD773B404FF6FF7707EA06172F433B435C
:104CD000018102830384F0BD0A460021018B4FF657
:104CE0008F7319401143018370470A460021018BDD
:104CF00048F6FF7319404FF6FF7303EA0223194386
:104D0000018370470A460021818B4FF68F7319404B
:104D10001143818370470A460021818B48F6FF7357
:104D200019404FF6FF7303EA02231943818370474A
:104D300021B1028842F08002028004E002884FF62E
:104D40007F731A400280704721B1828842F00402CA
:104D5000828004E082884FF6FB731A40828070479D
:104D600021B1828842F00802828004E082884FF6F6
:104D7000F7731A408280704721B1828842F00102A5
:104D8000828004E082884FF6FE731A40828070476A
:104D90000A460021018B4FF6F77319401143018336
:104DA00070470A460021018B4FF2FF7319404FF6FE
:104DB000FF7303EA02231943018370470A46002167
:104DC000818B4FF6F77319401143818370470A4670
:104DD0000021818B4FF2FF7319404FF6FF7303EAF6
:104DE00002231943818370470A460021018B4FF645
:104DF000FB7319401143018370470A460021018B60
:104E00004FF6FF3319404FF6FF7303EA02231943AD
:104E1000018370470A460021818B4FF6FB731940CE
:104E20001143818370470A460021818B4FF6FF337F
:104E300019404FF6FF7303EA022319438183704739
:104E40000A460021018B4FF67F73194011430183FD
:104E500070470A460021018BC1F30E014FF6FF7324
:104E600003EA02231943018370470A460021818B1C
:104E70004FF67F7319401143818370470A46002122
:104E8000818BC1F30E014FF6FF7303EA022319432E
:104E9000818370470A460021018C4FF6FD7319404B
:104EA0001143018470470A460021018C4FF6F773C5
:104EB00019401143018470470A460021018C4FF6C6
:104EC000DF7319404FF6FF7303EA0213194301849D
:104ED00070470A460021018C4FF67F7319404FF648
:104EE000FF7303EA02131943018470470A46002145
:104EF000018C4FF6FF5319404FF6FF7303EA02236C
:104F00001943018470470A460021018C4FF2FF7358
:104F100019404FF6FF7303EA0223194301847047D7
:104F20000A460021018C4DF6FF7319404FF6FF73BE
:104F300003EA023319430184704730B5002301248A
:104F40008C40A3B2048C9C430484048C02FA01F5C7
:104F5000ADB22C43048430BD30B5002304248C4012
:104F6000A3B2048C9C430484048C02FA01F5ADB214
:104F70002C43048430BD70B503460020002418463D
:104F8000183001258D40ACB21D8CA5431D8409B19C
:104F9000082909D100EB6100056825F0700505605E
:104FA0000568154305600EE00D1FC5F34E05284446
:104FB000056825F4E045056005684FF6FF7606EACA
:104FC00002263543056070BD21B1028842F002021D
:104FD000028004E002884FF6FD731A400280704799
:104FE00021B1028842F00402028004E002884FF6F8
:104FF000FB731A400280704721B1828842F0800220
:10500000828004E082884FF67F731A408280704766
:1050100002884FF6F7731A40028002880A43028022
:10502000704782884FF68F731A40828082880A43C5
:105030008280704702894FF6F8731A400281028914
:105040000A430281704702894FF67F731A4002813A
:1050500002890A43028170478184704781857047C5
:10506000818670470187704781877047A0F840109C
:10507000704702884FF6FF431A40028002880A43B5
:10508000028070470146888E70470146088F70473E
:105090000146888F70470146B1F8400070470146CD
:1050A000888C70470146088D704702460020138A9D
:1050B0000B400BB1012000E000207047CA43028280
:1050C000704730B50246002000230024158A05EA07
:1050D0000103958905EA010413B10CB1012000E038
:1050E000002030BDCA4302827047000001684FF6BD
:1050F000FE72114001600021016041608160C16069
:105100008D49884208D18C490839496841F00F011E
:10511000894A083A51608AE087491431884208D1A7
:1051200085490839496841F0F001834A083A5160DD
:105130007DE081492831884208D17F490839496892
:1051400041F470617C4A083A516070E07A493C3120
:10515000884208D178490839496841F47041764A53
:10516000083A516063E074495031884208D172496D
:105170000839496841F470216F4A083A516056E095
:105180006D496431884208D16B490839496841F456
:105190007001694A083A516049E0674978318842AC
:1051A00008D165490839496841F07061624A083A96
:1051B00051603CE06149884206D1011F096841F015
:1051C0000F01021F116032E05C491431884208D19E
:1051D0005A49091F096841F0F001584A121F11602D
:1051E00025E056492831884208D15449091F0968E9
:1051F00041F47061514A121F116018E04F493C316F
:10520000884208D14D49091F096841F470414B4A51
:10521000121F11600BE049495031884207D14749BC
:10522000091F096841F47021444A121F1160704738
:1052300010B50022026847F6F0739A430C6A8B6837
:1052400023430C6923434C6923438C692343CC6972
:1052500023434C6A23438C6A23431A430260CB687E
:1052600043600B6883604B68C36010BD0021016020
:1052700041608160C160016141618161C161016220
:1052800041628162704721B1026842F0010202600E
:1052900004E002684FF6FE731A40026070471AB1CC
:1052A00003680B43036002E003688B4303607047AD
:1052B000416070470146486880B27047014600204F
:1052C000002201F080531BB11C4B083B1A6802E01E
:1052D000194B083B1A6802EA01030BB1012000E0F8
:1052E0000020704700F0805119B11449091F08606F
:1052F00002E0114908394860704701460020002249
:1053000001F080531BB10D4B083B1A6802E00A4BB9
:10531000083B1A6802EA01030BB1012000E00020FB
:10532000704700F0805119B10449091F086002E07C
:1053300001490839486070470800024008040240EB
:1053400010B50446FA48844208D101214015FEF701
:105350006DFD00216015FEF769FD17E0F5488442F8
:1053600008D101210015FEF761FD00212015FEF78F
:105370005DFD0BE0F048844208D10121C803FEF72F
:1053800055FD00214FF40040FEF750FD10BD30B533
:105390000246002000235068E84C20400D790C683C
:1053A00044EA0524204350609068E54C2040D1E950
:1053B00002542C434D7944EA450420439060D06A5E
:1053C00020F470000C7C641EE4B2234340EA0350D6
:1053D000D06230BD00210160017141718160C16006
:1053E00001210174704721B1826842F0010282609C
:1053F00003E0826822F001028260704721B1826876
:1054000042F48072826003E0826822F480728260DB
:10541000704710B50023CBB21AB144681C434460F6
:1054200002E044689C43446010BD816841F008017B
:1054300081607047014600208A6802F008020AB1C4
:10544000012000E000207047816841F00401816084
:105450007047014600208A6802F004020AB1012068
:1054600000E00020704721B1826842F4A00282600F
:1054700003E0826822F4A0028260704701460020A7
:105480008A6802F480020AB1012000E0002070471F
:1054900010B50A4600210023416821F46041531EE3
:1054A00041EA4331416010BD21B1426842F40062DB
:1054B000426003E0426822F4006242607047F0B547
:1054C00004460D4600200021092D11DDE068A5F1FC
:1054D0000A0606EB4607072606FA07F18843A5F1F8
:1054E0000A0606EB460603FA06F10843E0600CE004
:1054F000206905EB4507072606FA07F1884305EB07
:10550000450603FA06F108432061072A0FDA606BAB
:10551000561E06EB86071F2606FA07F18843561E1D
:1055200006EB860605FA06F10843606322E00D2AC1
:105530000FDA206BD61F06EB86071F2606FA07F147
:105540008843D61F06EB860605FA06F1084320635A
:1055500010E0E06AA2F10D0606EB86071F2606FAA8
:1055600007F18843A2F10D0606EB860605FA06F15F
:105570000843E062F0BD21B1826842F4801282608B
:1055800003E0826822F48012826070470146C86C92
:1055900080B2704766484C300068704721B142685D
:1055A00042F48062426003E0426822F4806242601A
:1055B000704721B1426842F48052426003E0426881
:1055C00022F48052426070470A460021816821F42B
:1055D000E04111438160704721B1826842F400428A
:1055E000826003E0826822F400428260704721B149
:1055F000826842F40212826003E0826822F402129E
:1056000082607047014600208A6802F400120AB1E5
:10561000012000E000207047F0B504461546002048
:1056200000220026092911DDE068A1F10A0707EB35
:10563000470C072707FA0CF29043A1F10A0707EB82
:10564000470703FA07F21043E0600CE0206901EB22
:10565000410C072707FA0CF2904301EB410703FACC
:1056600007F210432061A06BC0F30156EF1C06F156
:10567000010CA7EB0C0707EB870C1F2707FA0CF2AE
:105680009043EF1C06F1010CA7EB0C0707EB870713
:1056900001FA07F21043A063F0BD10B50A460021DD
:1056A0000023816B21F44011531E41EA03518163B1
:1056B00010BD08B5002300930090009B0B4400939D
:1056C000009B1A6008BD08B50246002000900092B9
:1056D00001F12800009B184400900098006880B2F7
:1056E00008BD0A4600214168164B1940114341602C
:1056F00070474162826270470A460021416821F08A
:105700001F0111434160704740B1094908310968E0
:1057100041F40001064A0832116007E004490831EB
:10572000096821F40001024A083211607047000044
:105730000024014000280140003C0140FFFEF0FF32
:10574000FDF7F1FFFFFD3FFF0246002013680B400D
:105750000BB1012000E000207047CA43026070478F
:1057600070B502460020002300240B125568CEB20B
:1057700005EA060415681D4015B10CB1012000E0D2
:10578000002070BD00220A12D3430360704700005E
:1057900010B50446BE48844208D101218014FEF7AA
:1057A00045FB0021A014FEF741FB16E0B9488442F6
:1057B00008D101210014FEF746FB00212014FEF75A
:1057C00042FB0AE0B448844207D10121C013FEF72E
:1057D0003AFB0021E013FEF736FB10BD10B50022A6
:1057E000028802F441520B884C8823438C8823435F
:1057F000CC8823430C8923434C8923438C8923433E
:10580000CC8923431A430280838B4FF2FF742340D9
:1058100083830B8A038210BD2DE9F04F85B00546C6
:105820000C464FF0000902274FF000084FF0010B23
:105830000026B246A88B4FF240010840A883022000
:105840002884B5F81C90A068022801D100BF38E078
:10585000A08810B94FF0010B01E04FF0020B8D480A
:10586000854200D100E000BF6846FEF758FADDF837
:1058700000A0E088B0F5007F0AD14FEA1A2000EBC3
:1058800080004000A168B0FBF1F0401D86B20BE043
:105890004FEA4B10BAFBF0F000EB80004000A1682B
:1058A000B0FBF1F0401D86B20A20B6FBF0F606F020
:1058B0000108A6EB0800C0F34F074FF6FF7000EA9F
:1058C0000828022F01DBFF2F02DD02274FF000081E
:1058D000E08840EA080038432884A088A18908436A
:1058E000618808432188084340F4006040EA0909C0
:1058F000A5F81C9005B0BDE8F08F00210180418023
:105900008180C180018141818181C1810721018222
:1059100070470021018041808180C1800221816027
:1059200000218181704721B1028842F0400202804B
:1059300004E002884FF6BF731A400280704721B11D
:10594000828B42F48062828304E0828B4FF6FF33C5
:105950001A408283704730B5002400230C110125C2
:10596000A540ABB21AB185881D43858002E08588C9
:105970009D43858030BD1AB183880B43838002E04C
:1059800083888B4383807047818170470146888973
:1059900070474FF6FF62914204D0028842F4807251
:1059A000028004E002884FF6FF631A4002807047CD
:1059B00021B1828842F00402828004E082884FF69E
:1059C000FB731A408280704702884FF2FF731A40BF
:1059D000028002880A4302807047018841F48051A6
:1059E0000180704721B1028842F40052028004E035
:1059F00002884DF6FF731A4002807047024600206D
:105A0000012901D0108B00E0908A70470146088A76
:105A10007047B1F5804F04D1028842F48042028081
:105A200004E002884BF6FF731A400280704702467A
:105A3000002013890B400BB1012000E000207047CB
:105A4000CA4302817047F0B50246002000240023BB
:105A5000002501F00F070126BE40B4B20B1101264C
:105A60009E40B3B2968806EA03051689264016B111
:105A70000DB1012000E00020F0BD10B5002201F0C2
:105A80000F040123A3409AB2D343038110BD000049
:105A90000030014000380040003C004010B50120BB
:105AA000FEF7DEF90020FEF7DBF910BD2A49086099
:105AB00070472949091F08607047274984310860E9
:105AC000704701460020254A10884FF67F4210405B
:105AD0000843224A10807047014600201F4A108860
